{
  "contractName": "AutoInsurance",
  "abi": [
    {
      "inputs": [
        {
          "internalType": "string",
          "name": "_vehicleRegistrationNumber",
          "type": "string"
        },
        {
          "internalType": "string",
          "name": "_vehicleRegistrationDate",
          "type": "string"
        },
        {
          "internalType": "uint256",
          "name": "_minInsureAmount",
          "type": "uint256"
        },
        {
          "internalType": "uint256",
          "name": "_maxInsureAmount",
          "type": "uint256"
        }
      ],
      "stateMutability": "payable",
      "type": "constructor"
    },
    {
      "inputs": [
        {
          "internalType": "address",
          "name": "",
          "type": "address"
        }
      ],
      "name": "balances",
      "outputs": [
        {
          "internalType": "uint256",
          "name": "",
          "type": "uint256"
        }
      ],
      "stateMutability": "view",
      "type": "function"
    },
    {
      "inputs": [],
      "name": "escrow",
      "outputs": [
        {
          "internalType": "address payable",
          "name": "",
          "type": "address"
        }
      ],
      "stateMutability": "view",
      "type": "function"
    },
    {
      "inputs": [],
      "name": "insured",
      "outputs": [
        {
          "internalType": "address payable",
          "name": "",
          "type": "address"
        }
      ],
      "stateMutability": "view",
      "type": "function"
    },
    {
      "inputs": [
        {
          "internalType": "address",
          "name": "",
          "type": "address"
        }
      ],
      "name": "insurers",
      "outputs": [
        {
          "internalType": "address payable",
          "name": "",
          "type": "address"
        }
      ],
      "stateMutability": "view",
      "type": "function"
    },
    {
      "inputs": [],
      "name": "insurersTotal",
      "outputs": [
        {
          "internalType": "uint256",
          "name": "",
          "type": "uint256"
        }
      ],
      "stateMutability": "view",
      "type": "function"
    },
    {
      "inputs": [],
      "name": "maxInsureAmount",
      "outputs": [
        {
          "internalType": "uint256",
          "name": "",
          "type": "uint256"
        }
      ],
      "stateMutability": "view",
      "type": "function"
    },
    {
      "inputs": [],
      "name": "minInsureAmount",
      "outputs": [
        {
          "internalType": "uint256",
          "name": "",
          "type": "uint256"
        }
      ],
      "stateMutability": "view",
      "type": "function"
    },
    {
      "inputs": [],
      "name": "premium",
      "outputs": [
        {
          "internalType": "uint256",
          "name": "",
          "type": "uint256"
        }
      ],
      "stateMutability": "view",
      "type": "function"
    },
    {
      "inputs": [],
      "name": "status",
      "outputs": [
        {
          "internalType": "enum ISmartInsurance.Status",
          "name": "",
          "type": "uint8"
        }
      ],
      "stateMutability": "view",
      "type": "function"
    },
    {
      "inputs": [],
      "name": "vehicleRegistrationDate",
      "outputs": [
        {
          "internalType": "string",
          "name": "",
          "type": "string"
        }
      ],
      "stateMutability": "view",
      "type": "function"
    },
    {
      "inputs": [],
      "name": "vehicleRegistrationNumber",
      "outputs": [
        {
          "internalType": "string",
          "name": "",
          "type": "string"
        }
      ],
      "stateMutability": "view",
      "type": "function"
    },
    {
      "inputs": [],
      "name": "insure",
      "outputs": [],
      "stateMutability": "payable",
      "type": "function"
    },
    {
      "inputs": [],
      "name": "getBalance",
      "outputs": [
        {
          "internalType": "uint256",
          "name": "",
          "type": "uint256"
        }
      ],
      "stateMutability": "view",
      "type": "function"
    },
    {
      "inputs": [],
      "name": "getStatus",
      "outputs": [
        {
          "internalType": "enum ISmartInsurance.Status",
          "name": "",
          "type": "uint8"
        }
      ],
      "stateMutability": "view",
      "type": "function"
    },
    {
      "inputs": [
        {
          "internalType": "enum ISmartInsurance.Status",
          "name": "_status",
          "type": "uint8"
        }
      ],
      "name": "setStatus",
      "outputs": [],
      "stateMutability": "nonpayable",
      "type": "function"
    },
    {
      "inputs": [
        {
          "internalType": "address payable",
          "name": "to",
          "type": "address"
        },
        {
          "internalType": "uint256",
          "name": "amount",
          "type": "uint256"
        }
      ],
      "name": "payout",
      "outputs": [],
      "stateMutability": "payable",
      "type": "function"
    }
  ],
  "bytecode": "0x6080604052600060015560006004556000600555600060065573feb87197abd18ddabd28b58b205936dfb4569b17600760006101000a81548173ffffffffffffffffffffffffffffffffffffffff021916908373ffffffffffffffffffffffffffffffffffffffff1602179055506040516200153838038062001538833981810160405260808110156200009257600080fd5b8101908080516040519392919084640100000000821115620000b357600080fd5b83820191506020820185811115620000ca57600080fd5b8251866001820283011164010000000082111715620000e857600080fd5b8083526020830192505050908051906020019080838360005b838110156200011e57808201518184015260208101905062000101565b50505050905090810190601f1680156200014c5780820380516001836020036101000a031916815260200191505b50604052602001805160405193929190846401000000008211156200017057600080fd5b838201915060208201858111156200018757600080fd5b8251866001820283011164010000000082111715620001a557600080fd5b8083526020830192505050908051906020019080838360005b83811015620001db578082015181840152602081019050620001be565b50505050905090810190601f168015620002095780820380516001836020036101000a031916815260200191505b5060405260200180519060200190929190805190602001909291905050506000341162000282576040517f08c379a0000000000000000000000000000000000000000000000000000000008152600401808060200182810382526024815260200180620015146024913960400191505060405180910390fd5b33600060016101000a81548173ffffffffffffffffffffffffffffffffffffffff021916908373ffffffffffffffffffffffffffffffffffffffff1602179055508360089080519060200190620002db929190620003dc565b508260099080519060200190620002f4929190620003dc565b5081600581905550806006819055506200031f346001546200035360201b62000e311790919060201c565b60018190555060016000806101000a81548160ff021916908360058111156200034457fe5b0217905550505050506200048b565b600080828401905083811015620003d2576040517f08c379a000000000000000000000000000000000000000000000000000000000815260040180806020018281038252601b8152602001807f536166654d6174683a206164646974696f6e206f766572666c6f77000000000081525060200191505060405180910390fd5b8091505092915050565b828054600181600116156101000203166002900490600052602060002090601f016020900481019282601f106200041f57805160ff191683800117855562000450565b8280016001018555821562000450579182015b828111156200044f57825182559160200191906001019062000432565b5b5090506200045f919062000463565b5090565b6200048891905b80821115620004845760008160009055506001016200046a565b5090565b90565b611079806200049b6000396000f3fe6080604052600436106100f35760003560e01c80634e69d5601161008a578063de45aeef11610059578063de45aeef14610431578063e0a73a93146104c2578063e2fdcc17146104ed578063eebb136314610544576100f3565b80634e69d5601461031257806371de38c01461034b578063842f2731146103db5780639ca0b90a14610406576100f3565b80632e49d78b116100c65780632e49d78b1461020f5780633c3ce17d1461024d57806340f5eca6146102575780634ba6e10a146102e7576100f3565b8063117de2fd146100f857806312065fe014610146578063200d2ed21461017157806327e235e3146101aa575b600080fd5b6101446004803603604081101561010e57600080fd5b81019080803573ffffffffffffffffffffffffffffffffffffffff1690602001909291908035906020019092919050505061059b565b005b34801561015257600080fd5b5061015b61099f565b6040518082815260200191505060405180910390f35b34801561017d57600080fd5b506101866109a7565b6040518082600581111561019657fe5b60ff16815260200191505060405180910390f35b3480156101b657600080fd5b506101f9600480360360208110156101cd57600080fd5b81019080803573ffffffffffffffffffffffffffffffffffffffff1690602001909291905050506109b9565b6040518082815260200191505060405180910390f35b34801561021b57600080fd5b5061024b6004803603602081101561023257600080fd5b81019080803560ff1690602001909291905050506109d1565b005b6102556109f6565b005b34801561026357600080fd5b5061026c610c48565b6040518080602001828103825283818151815260200191508051906020019080838360005b838110156102ac578082015181840152602081019050610291565b50505050905090810190601f1680156102d95780820380516001836020036101000a031916815260200191505b509250505060405180910390f35b3480156102f357600080fd5b506102fc610ce6565b6040518082815260200191505060405180910390f35b34801561031e57600080fd5b50610327610cec565b6040518082600581111561033757fe5b60ff16815260200191505060405180910390f35b34801561035757600080fd5b50610360610d02565b6040518080602001828103825283818151815260200191508051906020019080838360005b838110156103a0578082015181840152602081019050610385565b50505050905090810190601f1680156103cd5780820380516001836020036101000a031916815260200191505b509250505060405180910390f35b3480156103e757600080fd5b506103f0610da0565b6040518082815260200191505060405180910390f35b34801561041257600080fd5b5061041b610da6565b6040518082815260200191505060405180910390f35b34801561043d57600080fd5b506104806004803603602081101561045457600080fd5b81019080803573ffffffffffffffffffffffffffffffffffffffff169060200190929190505050610dac565b604051808273ffffffffffffffffffffffffffffffffffffffff1673ffffffffffffffffffffffffffffffffffffffff16815260200191505060405180910390f35b3480156104ce57600080fd5b506104d7610ddf565b6040518082815260200191505060405180910390f35b3480156104f957600080fd5b50610502610de5565b604051808273ffffffffffffffffffffffffffffffffffffffff1673ffffffffffffffffffffffffffffffffffffffff16815260200191505060405180910390f35b34801561055057600080fd5b50610559610e0b565b604051808273ffffffffffffffffffffffffffffffffffffffff1673ffffffffffffffffffffffffffffffffffffffff16815260200191505060405180910390f35b600760009054906101000a900473ffffffffffffffffffffffffffffffffffffffff1673ffffffffffffffffffffffffffffffffffffffff163373ffffffffffffffffffffffffffffffffffffffff1614610641576040517f08c379a000000000000000000000000000000000000000000000000000000000815260040180806020018281038252603b815260200180610fbb603b913960400191505060405180910390fd5b8173ffffffffffffffffffffffffffffffffffffffff16600760009054906101000a900473ffffffffffffffffffffffffffffffffffffffff1673ffffffffffffffffffffffffffffffffffffffff1614156106e8576040517f08c379a0000000000000000000000000000000000000000000000000000000008152600401808060200182810382526035815260200180610eba6035913960400191505060405180910390fd5b8173ffffffffffffffffffffffffffffffffffffffff16600260008473ffffffffffffffffffffffffffffffffffffffff1673ffffffffffffffffffffffffffffffffffffffff16815260200190815260200160002060009054906101000a900473ffffffffffffffffffffffffffffffffffffffff1673ffffffffffffffffffffffffffffffffffffffff1614806107ce57508173ffffffffffffffffffffffffffffffffffffffff16600060019054906101000a900473ffffffffffffffffffffffffffffffffffffffff1673ffffffffffffffffffffffffffffffffffffffff16145b610823576040517f08c379a000000000000000000000000000000000000000000000000000000000815260040180806020018281038252604e815260200180610ff6604e913960600191505060405180910390fd5b8173ffffffffffffffffffffffffffffffffffffffff16600060019054906101000a900473ffffffffffffffffffffffffffffffffffffffff1673ffffffffffffffffffffffffffffffffffffffff16141561089d5760046000806101000a81548160ff0219169083600581111561089757fe5b02179055505b8173ffffffffffffffffffffffffffffffffffffffff16600260008473ffffffffffffffffffffffffffffffffffffffff1673ffffffffffffffffffffffffffffffffffffffff16815260200190815260200160002060009054906101000a900473ffffffffffffffffffffffffffffffffffffffff1673ffffffffffffffffffffffffffffffffffffffff1614156109545760056000806101000a81548160ff0219169083600581111561094e57fe5b02179055505b8173ffffffffffffffffffffffffffffffffffffffff166108fc829081150290604051600060405180830381858888f1935050505015801561099a573d6000803e3d6000fd5b505050565b600047905090565b6000809054906101000a900460ff1681565b60036020528060005260406000206000915090505481565b806000806101000a81548160ff021916908360058111156109ee57fe5b021790555050565b60003411610a4f576040517f08c379a0000000000000000000000000000000000000000000000000000000008152600401808060200182810382526028815260200180610f936028913960400191505060405180910390fd5b600554341015610aaa576040517f08c379a0000000000000000000000000000000000000000000000000000000008152600401808060200182810382526055815260200180610f3e6055913960600191505060405180910390fd5b600654610ac234600454610e3190919063ffffffff16565b10610b18576040517f08c379a000000000000000000000000000000000000000000000000000000000815260040180806020018281038252604f815260200180610eef604f913960600191505060405180910390fd5b33600260003373ffffffffffffffffffffffffffffffffffffffff1673ffffffffffffffffffffffffffffffffffffffff16815260200190815260200160002060006101000a81548173ffffffffffffffffffffffffffffffffffffffff021916908373ffffffffffffffffffffffffffffffffffffffff160217905550610be834600360003373ffffffffffffffffffffffffffffffffffffffff1673ffffffffffffffffffffffffffffffffffffffff16815260200190815260200160002054610e3190919063ffffffff16565b600360003373ffffffffffffffffffffffffffffffffffffffff1673ffffffffffffffffffffffffffffffffffffffff16815260200190815260200160002081905550610c4034600454610e3190919063ffffffff16565b600481905550565b60098054600181600116156101000203166002900480601f016020809104026020016040519081016040528092919081815260200182805460018160011615610100020316600290048015610cde5780601f10610cb357610100808354040283529160200191610cde565b820191906000526020600020905b815481529060010190602001808311610cc157829003601f168201915b505050505081565b60045481565b60008060009054906101000a900460ff16905090565b60088054600181600116156101000203166002900480601f016020809104026020016040519081016040528092919081815260200182805460018160011615610100020316600290048015610d985780601f10610d6d57610100808354040283529160200191610d98565b820191906000526020600020905b815481529060010190602001808311610d7b57829003601f168201915b505050505081565b60055481565b60065481565b60026020528060005260406000206000915054906101000a900473ffffffffffffffffffffffffffffffffffffffff1681565b60015481565b600760009054906101000a900473ffffffffffffffffffffffffffffffffffffffff1681565b600060019054906101000a900473ffffffffffffffffffffffffffffffffffffffff1681565b600080828401905083811015610eaf576040517f08c379a000000000000000000000000000000000000000000000000000000000815260040180806020018281038252601b8152602001807f536166654d6174683a206164646974696f6e206f766572666c6f77000000000081525060200191505060405180910390fd5b809150509291505056fe596f752063616e6e6f74207472616e73666572206d6f6e6579207468617420646f65736e27742062656c6f6e6720746f20796f7521596f757220696e7375726520616d6f756e742063616e6e6f74206578636565642074686520496e737572616e636520636f6e7472616374277320496e73757265727320506f6f6c20416d6f756e742e596f757220696e7375726520616d6f756e74206d757374206265206d6f7265207468616e207468697320496e737572616e636520636f6e74726163742773204d696e696d756d20496e7375726520416d6f756e742e596f757220496e7375726520416d6f756e742063616e6e6f74206265207a65726f2076616c75652e4f6e6c79204772696666696e496e737572616e6365277320657363726f7720736572766963652063616e2063616c6c2074686973206d6574686f645468697320696e737572616e636520636f6e74726163742063616e206f6e6c79207061796f757420746f207265676973746572656420696e737572657273206f722074686520696e73757265642ea26469706673582212201885effc1421a0f0caec600d1c841e095ee66dabfebb7a5299a9291f372a61d564736f6c63430006000033596f7572207072656d69756d206d757374206265206174206c656173742031207765692e",
  "source": "pragma solidity ^0.6.0;\n\nimport \"./SafeMath.sol\";\nimport \"./ISmartInsurance.sol\";\n\ncontract AutoInsurance is ISmartInsurance {\n    using SafeMath for uint256;\n\n    // Status the current Status of the insurance contract\n    Status public status;\n    \n    // Stores the Etheruem address of the insured, it's payable so that the insured address can receive payouts\n    address payable public insured;\n    uint256 public premium = 0;\n    \n    // As there can be many insurers, we use an array\n    // It's also payable in case it expires\n    // address payable[] public insurers;\n    mapping(address => address payable) public insurers;\n    mapping(address => uint256) public balances; // Specific insurers total\n    uint256 public insurersTotal = 0; // Total amount ONLY for the insurers pool\n\n    // Minimum, maximum and total amount for the insurers pool\n    uint256 public minInsureAmount = 0;\n    uint256 public maxInsureAmount = 0;\n    \n    // Our address as escrow 0xfeB87197aBd18dDaBD28B58b205936dfB4569B17\n    address payable public escrow = payable(0xfeB87197aBd18dDaBD28B58b205936dfB4569B17);\n    \n    string public vehicleRegistrationNumber;\n    string public vehicleRegistrationDate;\n    \n    modifier onlyInsured() {\n        require(msg.sender == insured, \"Only insured can call this method\");\n        _;\n    }\n    \n    modifier onlyEscrow() {\n        require(msg.sender == escrow, \"Only GriffinInsurance's escrow service can call this method\");\n        _;\n    }\n    \n    constructor(string memory _vehicleRegistrationNumber, string memory _vehicleRegistrationDate, uint256 _minInsureAmount, uint256 _maxInsureAmount) payable public {\n        require(msg.value > 0, \"Your premium must be at least 1 wei.\");\n        insured = msg.sender;\n        vehicleRegistrationNumber = _vehicleRegistrationNumber;\n        vehicleRegistrationDate = _vehicleRegistrationDate;\n        minInsureAmount = _minInsureAmount;\n        maxInsureAmount = _maxInsureAmount;\n        premium = premium.add(msg.value);\n        status = Status.AWAITING_FUNDING;\n    }\n    \n    function insure() payable public override {\n        require(msg.value > 0, \"Your Insure Amount cannot be zero value.\");\n        require(msg.value >= minInsureAmount, \"Your insure amount must be more than this Insurance contract's Minimum Insure Amount.\");\n        require(insurersTotal.add(msg.value) < maxInsureAmount, \"Your insure amount cannot exceed the Insurance contract's Insurers Pool Amount.\");\n\n        insurers[msg.sender] = msg.sender;\n        balances[msg.sender] = balances[msg.sender].add(msg.value);\n        insurersTotal = insurersTotal.add(msg.value);\n    }\n\n    function getBalance() public view override returns (uint256) {\n        return address(this).balance;\n    }\n    \n    function getStatus() public view override returns (Status) {\n        return status;\n    }\n    \n    function setStatus(Status _status) public override {\n        status = _status;\n    }\n    \n    // Only we can control who to payout to, but not to ourselves\n    function payout(address payable to, uint256 amount) onlyEscrow payable public override {\n        // The payable to address cannot be the escrow\n        require(escrow != to, \"You cannot transfer money that doesn't belong to you!\");\n        // The payable to address must either be the insured or the insurers\n        require(insurers[to] == to || insured == to, \"This insurance contract can only payout to registered insurers or the insured.\");\n        \n        if (insured == to) {\n            status = Status.PAID_OUT;\n        }\n        if (insurers[to] == to) {\n            status = Status.EXPIRED_AND_NO_CLAIMS;\n        }\n        \n        to.transfer(amount);\n    }\n}",
  "sourcePath": "/Users/jiajian/Documents/GitHub/is452/is452-js-backend/blockchain/contracts/AutoInsurance.sol",
  "compiler": {
    "name": "solc",
    "version": "0.6.0+commit.26b70077.Emscripten.clang"
  },
  "schemaVersion": "3.3.0",
  "updatedAt": "2020-11-05T03:21:09.280Z",
  "devdoc": {
    "methods": {}
  },
  "userdoc": {
    "methods": {}
  }
}