{
  "contractName": "FlightInsurance",
  "abi": [
    {
      "inputs": [
        {
          "internalType": "string",
          "name": "_flightCode",
          "type": "string"
        },
        {
          "internalType": "string",
          "name": "_flightDate",
          "type": "string"
        },
        {
          "internalType": "uint256",
          "name": "_minInsureAmount",
          "type": "uint256"
        },
        {
          "internalType": "uint256",
          "name": "_maxInsureAmount",
          "type": "uint256"
        }
      ],
      "stateMutability": "payable",
      "type": "constructor"
    },
    {
      "inputs": [
        {
          "internalType": "address",
          "name": "",
          "type": "address"
        }
      ],
      "name": "balances",
      "outputs": [
        {
          "internalType": "uint256",
          "name": "",
          "type": "uint256"
        }
      ],
      "stateMutability": "view",
      "type": "function"
    },
    {
      "inputs": [],
      "name": "commissions",
      "outputs": [
        {
          "internalType": "address payable",
          "name": "",
          "type": "address"
        }
      ],
      "stateMutability": "view",
      "type": "function"
    },
    {
      "inputs": [],
      "name": "escrow",
      "outputs": [
        {
          "internalType": "address payable",
          "name": "",
          "type": "address"
        }
      ],
      "stateMutability": "view",
      "type": "function"
    },
    {
      "inputs": [],
      "name": "flightCode",
      "outputs": [
        {
          "internalType": "string",
          "name": "",
          "type": "string"
        }
      ],
      "stateMutability": "view",
      "type": "function"
    },
    {
      "inputs": [],
      "name": "flightDate",
      "outputs": [
        {
          "internalType": "string",
          "name": "",
          "type": "string"
        }
      ],
      "stateMutability": "view",
      "type": "function"
    },
    {
      "inputs": [],
      "name": "insured",
      "outputs": [
        {
          "internalType": "address payable",
          "name": "",
          "type": "address"
        }
      ],
      "stateMutability": "view",
      "type": "function"
    },
    {
      "inputs": [
        {
          "internalType": "address",
          "name": "",
          "type": "address"
        }
      ],
      "name": "insurers",
      "outputs": [
        {
          "internalType": "address payable",
          "name": "",
          "type": "address"
        }
      ],
      "stateMutability": "view",
      "type": "function"
    },
    {
      "inputs": [],
      "name": "insurersTotal",
      "outputs": [
        {
          "internalType": "uint256",
          "name": "",
          "type": "uint256"
        }
      ],
      "stateMutability": "view",
      "type": "function"
    },
    {
      "inputs": [],
      "name": "maxInsureAmount",
      "outputs": [
        {
          "internalType": "uint256",
          "name": "",
          "type": "uint256"
        }
      ],
      "stateMutability": "view",
      "type": "function"
    },
    {
      "inputs": [],
      "name": "minInsureAmount",
      "outputs": [
        {
          "internalType": "uint256",
          "name": "",
          "type": "uint256"
        }
      ],
      "stateMutability": "view",
      "type": "function"
    },
    {
      "inputs": [],
      "name": "premium",
      "outputs": [
        {
          "internalType": "uint256",
          "name": "",
          "type": "uint256"
        }
      ],
      "stateMutability": "view",
      "type": "function"
    },
    {
      "inputs": [],
      "name": "status",
      "outputs": [
        {
          "internalType": "enum ISmartInsurance.Status",
          "name": "",
          "type": "uint8"
        }
      ],
      "stateMutability": "view",
      "type": "function"
    },
    {
      "inputs": [],
      "name": "insure",
      "outputs": [],
      "stateMutability": "payable",
      "type": "function"
    },
    {
      "inputs": [],
      "name": "getBalance",
      "outputs": [
        {
          "internalType": "uint256",
          "name": "",
          "type": "uint256"
        }
      ],
      "stateMutability": "view",
      "type": "function"
    },
    {
      "inputs": [],
      "name": "getStatus",
      "outputs": [
        {
          "internalType": "enum ISmartInsurance.Status",
          "name": "",
          "type": "uint8"
        }
      ],
      "stateMutability": "view",
      "type": "function"
    },
    {
      "inputs": [
        {
          "internalType": "enum ISmartInsurance.Status",
          "name": "_status",
          "type": "uint8"
        }
      ],
      "name": "setStatus",
      "outputs": [],
      "stateMutability": "nonpayable",
      "type": "function"
    },
    {
      "inputs": [
        {
          "internalType": "address payable",
          "name": "to",
          "type": "address"
        },
        {
          "internalType": "uint256",
          "name": "amount",
          "type": "uint256"
        }
      ],
      "name": "payout",
      "outputs": [],
      "stateMutability": "payable",
      "type": "function"
    }
  ],
  "bytecode": "0x6080604052600060015560006004556000600555600060065573feb87197abd18ddabd28b58b205936dfb4569b17600760006101000a81548173ffffffffffffffffffffffffffffffffffffffff021916908373ffffffffffffffffffffffffffffffffffffffff16021790555073d9ce694d87a939341e2e86ef032de1e08f26e271600860006101000a81548173ffffffffffffffffffffffffffffffffffffffff021916908373ffffffffffffffffffffffffffffffffffffffff1602179055506040516200168b3803806200168b83398181016040526080811015620000e757600080fd5b81019080805160405193929190846401000000008211156200010857600080fd5b838201915060208201858111156200011f57600080fd5b82518660018202830111640100000000821117156200013d57600080fd5b8083526020830192505050908051906020019080838360005b838110156200017357808201518184015260208101905062000156565b50505050905090810190601f168015620001a15780820380516001836020036101000a031916815260200191505b5060405260200180516040519392919084640100000000821115620001c557600080fd5b83820191506020820185811115620001dc57600080fd5b8251866001820283011164010000000082111715620001fa57600080fd5b8083526020830192505050908051906020019080838360005b838110156200023057808201518184015260208101905062000213565b50505050905090810190601f1680156200025e5780820380516001836020036101000a031916815260200191505b50604052602001805190602001909291908051906020019092919050505060003411620002d7576040517f08c379a0000000000000000000000000000000000000000000000000000000008152600401808060200182810382526024815260200180620016676024913960400191505060405180910390fd5b33600060016101000a81548173ffffffffffffffffffffffffffffffffffffffff021916908373ffffffffffffffffffffffffffffffffffffffff16021790555083600990805190602001906200033092919062000431565b5082600a90805190602001906200034992919062000431565b5081600581905550806006819055506200037434600154620003a860201b62000f121790919060201c565b60018190555060016000806101000a81548160ff021916908360058111156200039957fe5b021790555050505050620004e0565b60008082840190508381101562000427576040517f08c379a000000000000000000000000000000000000000000000000000000000815260040180806020018281038252601b8152602001807f536166654d6174683a206164646974696f6e206f766572666c6f77000000000081525060200191505060405180910390fd5b8091505092915050565b828054600181600116156101000203166002900490600052602060002090601f016020900481019282601f106200047457805160ff1916838001178555620004a5565b82800160010185558215620004a5579182015b82811115620004a457825182559160200191906001019062000487565b5b509050620004b49190620004b8565b5090565b620004dd91905b80821115620004d9576000816000905550600101620004bf565b5090565b90565b61117780620004f06000396000f3fe6080604052600436106100fe5760003560e01c8063790aed1711610095578063d27872d011610064578063d27872d014610403578063de45aeef14610493578063e0a73a9314610524578063e2fdcc171461054f578063eebb1363146105a6576100fe565b8063790aed17146102c6578063842f27311461031d5780639ca0b90a14610348578063c8160db814610373576100fe565b80632e49d78b116100d15780632e49d78b1461021a5780633c3ce17d146102585780634ba6e10a146102625780634e69d5601461028d576100fe565b8063117de2fd1461010357806312065fe014610151578063200d2ed21461017c57806327e235e3146101b5575b600080fd5b61014f6004803603604081101561011957600080fd5b81019080803573ffffffffffffffffffffffffffffffffffffffff169060200190929190803590602001909291905050506105fd565b005b34801561015d57600080fd5b50610166610a59565b6040518082815260200191505060405180910390f35b34801561018857600080fd5b50610191610a61565b604051808260058111156101a157fe5b60ff16815260200191505060405180910390f35b3480156101c157600080fd5b50610204600480360360208110156101d857600080fd5b81019080803573ffffffffffffffffffffffffffffffffffffffff169060200190929190505050610a73565b6040518082815260200191505060405180910390f35b34801561022657600080fd5b506102566004803603602081101561023d57600080fd5b81019080803560ff169060200190929190505050610a8b565b005b610260610ab0565b005b34801561026e57600080fd5b50610277610d03565b6040518082815260200191505060405180910390f35b34801561029957600080fd5b506102a2610d09565b604051808260058111156102b257fe5b60ff16815260200191505060405180910390f35b3480156102d257600080fd5b506102db610d1f565b604051808273ffffffffffffffffffffffffffffffffffffffff1673ffffffffffffffffffffffffffffffffffffffff16815260200191505060405180910390f35b34801561032957600080fd5b50610332610d45565b6040518082815260200191505060405180910390f35b34801561035457600080fd5b5061035d610d4b565b6040518082815260200191505060405180910390f35b34801561037f57600080fd5b50610388610d51565b6040518080602001828103825283818151815260200191508051906020019080838360005b838110156103c85780820151818401526020810190506103ad565b50505050905090810190601f1680156103f55780820380516001836020036101000a031916815260200191505b509250505060405180910390f35b34801561040f57600080fd5b50610418610def565b6040518080602001828103825283818151815260200191508051906020019080838360005b8381101561045857808201518184015260208101905061043d565b50505050905090810190601f1680156104855780820380516001836020036101000a031916815260200191505b509250505060405180910390f35b34801561049f57600080fd5b506104e2600480360360208110156104b657600080fd5b81019080803573ffffffffffffffffffffffffffffffffffffffff169060200190929190505050610e8d565b604051808273ffffffffffffffffffffffffffffffffffffffff1673ffffffffffffffffffffffffffffffffffffffff16815260200191505060405180910390f35b34801561053057600080fd5b50610539610ec0565b6040518082815260200191505060405180910390f35b34801561055b57600080fd5b50610564610ec6565b604051808273ffffffffffffffffffffffffffffffffffffffff1673ffffffffffffffffffffffffffffffffffffffff16815260200191505060405180910390f35b3480156105b257600080fd5b506105bb610eec565b604051808273ffffffffffffffffffffffffffffffffffffffff1673ffffffffffffffffffffffffffffffffffffffff16815260200191505060405180910390f35b600760009054906101000a900473ffffffffffffffffffffffffffffffffffffffff1673ffffffffffffffffffffffffffffffffffffffff163373ffffffffffffffffffffffffffffffffffffffff16146106a3576040517f08c379a000000000000000000000000000000000000000000000000000000000815260040180806020018281038252603b815260200180611107603b913960400191505060405180910390fd5b8173ffffffffffffffffffffffffffffffffffffffff16600760009054906101000a900473ffffffffffffffffffffffffffffffffffffffff1673ffffffffffffffffffffffffffffffffffffffff16141561074a576040517f08c379a0000000000000000000000000000000000000000000000000000000008152600401808060200182810382526035815260200180610f9b6035913960400191505060405180910390fd5b8173ffffffffffffffffffffffffffffffffffffffff16600260008473ffffffffffffffffffffffffffffffffffffffff1673ffffffffffffffffffffffffffffffffffffffff16815260200190815260200160002060009054906101000a900473ffffffffffffffffffffffffffffffffffffffff1673ffffffffffffffffffffffffffffffffffffffff16148061083057508173ffffffffffffffffffffffffffffffffffffffff16600060019054906101000a900473ffffffffffffffffffffffffffffffffffffffff1673ffffffffffffffffffffffffffffffffffffffff16145b8061088857508173ffffffffffffffffffffffffffffffffffffffff16600860009054906101000a900473ffffffffffffffffffffffffffffffffffffffff1673ffffffffffffffffffffffffffffffffffffffff16145b6108dd576040517f08c379a000000000000000000000000000000000000000000000000000000000815260040180806020018281038252606b81526020018061109c606b913960800191505060405180910390fd5b8173ffffffffffffffffffffffffffffffffffffffff16600060019054906101000a900473ffffffffffffffffffffffffffffffffffffffff1673ffffffffffffffffffffffffffffffffffffffff1614156109575760046000806101000a81548160ff0219169083600581111561095157fe5b02179055505b8173ffffffffffffffffffffffffffffffffffffffff16600260008473ffffffffffffffffffffffffffffffffffffffff1673ffffffffffffffffffffffffffffffffffffffff16815260200190815260200160002060009054906101000a900473ffffffffffffffffffffffffffffffffffffffff1673ffffffffffffffffffffffffffffffffffffffff161415610a0e5760056000806101000a81548160ff02191690836005811115610a0857fe5b02179055505b8173ffffffffffffffffffffffffffffffffffffffff166108fc829081150290604051600060405180830381858888f19350505050158015610a54573d6000803e3d6000fd5b505050565b600047905090565b6000809054906101000a900460ff1681565b60036020528060005260406000206000915090505481565b806000806101000a81548160ff02191690836005811115610aa857fe5b021790555050565b60003411610b09576040517f08c379a00000000000000000000000000000000000000000000000000000000081526004018080602001828103825260288152602001806110746028913960400191505060405180910390fd5b600554341015610b64576040517f08c379a000000000000000000000000000000000000000000000000000000000815260040180806020018281038252605581526020018061101f6055913960600191505060405180910390fd5b600654610b7c34600454610f1290919063ffffffff16565b1115610bd3576040517f08c379a000000000000000000000000000000000000000000000000000000000815260040180806020018281038252604f815260200180610fd0604f913960600191505060405180910390fd5b33600260003373ffffffffffffffffffffffffffffffffffffffff1673ffffffffffffffffffffffffffffffffffffffff16815260200190815260200160002060006101000a81548173ffffffffffffffffffffffffffffffffffffffff021916908373ffffffffffffffffffffffffffffffffffffffff160217905550610ca334600360003373ffffffffffffffffffffffffffffffffffffffff1673ffffffffffffffffffffffffffffffffffffffff16815260200190815260200160002054610f1290919063ffffffff16565b600360003373ffffffffffffffffffffffffffffffffffffffff1673ffffffffffffffffffffffffffffffffffffffff16815260200190815260200160002081905550610cfb34600454610f1290919063ffffffff16565b600481905550565b60045481565b60008060009054906101000a900460ff16905090565b600860009054906101000a900473ffffffffffffffffffffffffffffffffffffffff1681565b60055481565b60065481565b600a8054600181600116156101000203166002900480601f016020809104026020016040519081016040528092919081815260200182805460018160011615610100020316600290048015610de75780601f10610dbc57610100808354040283529160200191610de7565b820191906000526020600020905b815481529060010190602001808311610dca57829003601f168201915b505050505081565b60098054600181600116156101000203166002900480601f016020809104026020016040519081016040528092919081815260200182805460018160011615610100020316600290048015610e855780601f10610e5a57610100808354040283529160200191610e85565b820191906000526020600020905b815481529060010190602001808311610e6857829003601f168201915b505050505081565b60026020528060005260406000206000915054906101000a900473ffffffffffffffffffffffffffffffffffffffff1681565b60015481565b600760009054906101000a900473ffffffffffffffffffffffffffffffffffffffff1681565b600060019054906101000a900473ffffffffffffffffffffffffffffffffffffffff1681565b600080828401905083811015610f90576040517f08c379a000000000000000000000000000000000000000000000000000000000815260040180806020018281038252601b8152602001807f536166654d6174683a206164646974696f6e206f766572666c6f77000000000081525060200191505060405180910390fd5b809150509291505056fe596f752063616e6e6f74207472616e73666572206d6f6e6579207468617420646f65736e27742062656c6f6e6720746f20796f7521596f757220696e7375726520616d6f756e742063616e6e6f74206578636565642074686520496e737572616e636520636f6e7472616374277320496e73757265727320506f6f6c20416d6f756e742e596f757220696e7375726520616d6f756e74206d757374206265206d6f7265207468616e207468697320496e737572616e636520636f6e74726163742773204d696e696d756d20496e7375726520416d6f756e742e596f757220496e7375726520416d6f756e742063616e6e6f74206265207a65726f2076616c75652e5468697320696e737572616e636520636f6e74726163742063616e206f6e6c79207061796f757420746f207265676973746572656420696e7375726572732c206f722074686520696e73757265642c206f722074686520636f6d6d697373696f6e7320616464726573732e4f6e6c79204772696666696e496e737572616e6365277320657363726f7720736572766963652063616e2063616c6c2074686973206d6574686f64a2646970667358221220d5180802e4097dff36c8cfd2fe12a2eff6465d86002720116ea1c967aa3a3c2264736f6c63430006000033596f7572207072656d69756d206d757374206265206174206c656173742031207765692e",
  "source": "pragma solidity ^0.6.0;\n\nimport \"./SafeMath.sol\";\nimport \"./ISmartInsurance.sol\";\n\ncontract FlightInsurance is ISmartInsurance {\n    using SafeMath for uint256;\n\n    // Status the current Status of the insurance contract\n    Status public status;\n\n    // Stores the Etheruem address of the insured, it's payable so that the insured address can receive payouts\n    address payable public insured;\n    uint256 public premium = 0;\n\n    // As there can be many insurers, we use an array\n    // It's also payable in case it expires\n    // address payable[] public insurers;\n    mapping(address => address payable) public insurers;\n    mapping(address => uint256) public balances; // Specific insurers total\n    uint256 public insurersTotal = 0; // Total amount ONLY for the insurers pool\n\n    // Minimum, maximum and total amount for the insurers pool\n    uint256 public minInsureAmount = 0;\n    uint256 public maxInsureAmount = 0;\n\n    // Our address as escrow 0xfeB87197aBd18dDaBD28B58b205936dfB4569B17\n    address payable public escrow = payable(\n        0xfeB87197aBd18dDaBD28B58b205936dfB4569B17\n    );\n    // Our address to hold the commissions is 0xd9CE694d87A939341e2e86eF032dE1e08f26e271\n    address payable public commissions = payable(\n        0xd9CE694d87A939341e2e86eF032dE1e08f26e271\n    );\n\n    string public flightCode;\n    string public flightDate;\n\n    modifier onlyInsured() {\n        require(msg.sender == insured, \"Only insured can call this method\");\n        _;\n    }\n\n    modifier onlyEscrow() {\n        require(\n            msg.sender == escrow,\n            \"Only GriffinInsurance's escrow service can call this method\"\n        );\n        _;\n    }\n\n    constructor(\n        string memory _flightCode,\n        string memory _flightDate,\n        uint256 _minInsureAmount,\n        uint256 _maxInsureAmount\n    ) public payable {\n        require(msg.value > 0, \"Your premium must be at least 1 wei.\");\n        insured = msg.sender;\n        flightCode = _flightCode;\n        flightDate = _flightDate;\n        minInsureAmount = _minInsureAmount;\n        maxInsureAmount = _maxInsureAmount;\n        premium = premium.add(msg.value);\n        status = Status.AWAITING_FUNDING;\n    }\n\n    function insure() public override payable {\n        require(msg.value > 0, \"Your Insure Amount cannot be zero value.\");\n        require(\n            msg.value >= minInsureAmount,\n            \"Your insure amount must be more than this Insurance contract's Minimum Insure Amount.\"\n        );\n        require(\n            insurersTotal.add(msg.value) <= maxInsureAmount,\n            \"Your insure amount cannot exceed the Insurance contract's Insurers Pool Amount.\"\n        );\n\n        insurers[msg.sender] = msg.sender;\n        balances[msg.sender] = balances[msg.sender].add(msg.value);\n        insurersTotal = insurersTotal.add(msg.value);\n    }\n\n    function getBalance() public override view returns (uint256) {\n        return address(this).balance;\n    }\n\n    function getStatus() public override view returns (Status) {\n        return status;\n    }\n\n    function setStatus(Status _status) public override {\n        status = _status;\n    }\n\n    // Only we can control who to payout to, but not to ourselves\n    function payout(address payable to, uint256 amount)\n        public\n        override\n        payable\n        onlyEscrow\n    {\n        // The payable to address cannot be the escrow\n        require(\n            escrow != to,\n            \"You cannot transfer money that doesn't belong to you!\"\n        );\n        // The payable to address must either be the insured or the insurers\n        require(\n            insurers[to] == to || insured == to || commissions == to,\n            \"This insurance contract can only payout to registered insurers, or the insured, or the commissions address.\"\n        );\n\n        if (insured == to) {\n            status = Status.PAID_OUT;\n        }\n        if (insurers[to] == to) {\n            status = Status.EXPIRED_AND_NO_CLAIMS;\n        }\n\n        to.transfer(amount);\n    }\n}\n",
  "sourcePath": "/Users/jiajian/Documents/GitHub/is452/is452-js-backend/blockchain/contracts/FlightInsurance.sol",
  "compiler": {
    "name": "solc",
    "version": "0.6.0+commit.26b70077.Emscripten.clang"
  },
  "schemaVersion": "3.3.0",
  "updatedAt": "2020-11-05T07:17:53.736Z",
  "devdoc": {
    "methods": {}
  },
  "userdoc": {
    "methods": {}
  }
}