{
  "contractName": "FlightInsurance",
  "abi": [
    {
      "inputs": [
        {
          "internalType": "string",
          "name": "_flightCode",
          "type": "string"
        },
        {
          "internalType": "string",
          "name": "_flightDate",
          "type": "string"
        }
      ],
      "stateMutability": "payable",
      "type": "constructor"
    },
    {
      "inputs": [
        {
          "internalType": "address",
          "name": "",
          "type": "address"
        }
      ],
      "name": "balances",
      "outputs": [
        {
          "internalType": "uint256",
          "name": "",
          "type": "uint256"
        }
      ],
      "stateMutability": "view",
      "type": "function"
    },
    {
      "inputs": [],
      "name": "commissions",
      "outputs": [
        {
          "internalType": "address payable",
          "name": "",
          "type": "address"
        }
      ],
      "stateMutability": "view",
      "type": "function"
    },
    {
      "inputs": [],
      "name": "escrow",
      "outputs": [
        {
          "internalType": "address payable",
          "name": "",
          "type": "address"
        }
      ],
      "stateMutability": "view",
      "type": "function"
    },
    {
      "inputs": [],
      "name": "flightCode",
      "outputs": [
        {
          "internalType": "string",
          "name": "",
          "type": "string"
        }
      ],
      "stateMutability": "view",
      "type": "function"
    },
    {
      "inputs": [],
      "name": "flightDate",
      "outputs": [
        {
          "internalType": "string",
          "name": "",
          "type": "string"
        }
      ],
      "stateMutability": "view",
      "type": "function"
    },
    {
      "inputs": [],
      "name": "insured",
      "outputs": [
        {
          "internalType": "address payable",
          "name": "",
          "type": "address"
        }
      ],
      "stateMutability": "view",
      "type": "function"
    },
    {
      "inputs": [
        {
          "internalType": "address",
          "name": "",
          "type": "address"
        }
      ],
      "name": "insurers",
      "outputs": [
        {
          "internalType": "address payable",
          "name": "",
          "type": "address"
        }
      ],
      "stateMutability": "view",
      "type": "function"
    },
    {
      "inputs": [],
      "name": "premium",
      "outputs": [
        {
          "internalType": "uint256",
          "name": "",
          "type": "uint256"
        }
      ],
      "stateMutability": "view",
      "type": "function"
    },
    {
      "inputs": [],
      "name": "status",
      "outputs": [
        {
          "internalType": "enum ISmartInsurance.Status",
          "name": "",
          "type": "uint8"
        }
      ],
      "stateMutability": "view",
      "type": "function"
    },
    {
      "inputs": [],
      "name": "insure",
      "outputs": [],
      "stateMutability": "payable",
      "type": "function"
    },
    {
      "inputs": [],
      "name": "getBalance",
      "outputs": [
        {
          "internalType": "uint256",
          "name": "",
          "type": "uint256"
        }
      ],
      "stateMutability": "view",
      "type": "function"
    },
    {
      "inputs": [],
      "name": "getStatus",
      "outputs": [
        {
          "internalType": "enum ISmartInsurance.Status",
          "name": "",
          "type": "uint8"
        }
      ],
      "stateMutability": "view",
      "type": "function"
    },
    {
      "inputs": [
        {
          "internalType": "enum ISmartInsurance.Status",
          "name": "_status",
          "type": "uint8"
        }
      ],
      "name": "setStatus",
      "outputs": [],
      "stateMutability": "nonpayable",
      "type": "function"
    },
    {
      "inputs": [
        {
          "internalType": "address payable",
          "name": "to",
          "type": "address"
        },
        {
          "internalType": "uint256",
          "name": "amount",
          "type": "uint256"
        }
      ],
      "name": "payout",
      "outputs": [],
      "stateMutability": "payable",
      "type": "function"
    }
  ],
  "bytecode": "0x6080604052600060015573feb87197abd18ddabd28b58b205936dfb4569b17600460006101000a81548173ffffffffffffffffffffffffffffffffffffffff021916908373ffffffffffffffffffffffffffffffffffffffff1602179055507fc008b0ce010280fa0e0a367df632ceba7d89e7ed7a5e3d2e05d7652b0094501e600560006101000a81548173ffffffffffffffffffffffffffffffffffffffff021916908373ffffffffffffffffffffffffffffffffffffffff1602179055506040516200142f3803806200142f83398181016040526040811015620000e457600080fd5b81019080805160405193929190846401000000008211156200010557600080fd5b838201915060208201858111156200011c57600080fd5b82518660018202830111640100000000821117156200013a57600080fd5b8083526020830192505050908051906020019080838360005b838110156200017057808201518184015260208101905062000153565b50505050905090810190601f1680156200019e5780820380516001836020036101000a031916815260200191505b5060405260200180516040519392919084640100000000821115620001c257600080fd5b83820191506020820185811115620001d957600080fd5b8251866001820283011164010000000082111715620001f757600080fd5b8083526020830192505050908051906020019080838360005b838110156200022d57808201518184015260208101905062000210565b50505050905090810190601f1680156200025b5780820380516001836020036101000a031916815260200191505b5060405250505060003411620002bd576040517f08c379a00000000000000000000000000000000000000000000000000000000081526004018080602001828103825260248152602001806200140b6024913960400191505060405180910390fd5b33600060016101000a81548173ffffffffffffffffffffffffffffffffffffffff021916908373ffffffffffffffffffffffffffffffffffffffff16021790555081600690805190602001906200031692919062000407565b5080600790805190602001906200032f92919062000407565b506200034c346001546200037e60201b62000d791790919060201c565b60018190555060016000806101000a81548160ff021916908360058111156200037157fe5b02179055505050620004b6565b600080828401905083811015620003fd576040517f08c379a000000000000000000000000000000000000000000000000000000000815260040180806020018281038252601b8152602001807f536166654d6174683a206164646974696f6e206f766572666c6f77000000000081525060200191505060405180910390fd5b8091505092915050565b828054600181600116156101000203166002900490600052602060002090601f016020900481019282601f106200044a57805160ff19168380011785556200047b565b828001600101855582156200047b579182015b828111156200047a5782518255916020019190600101906200045d565b5b5090506200048a91906200048e565b5090565b620004b391905b80821115620004af57600081600090555060010162000495565b5090565b90565b610f4580620004c66000396000f3fe6080604052600436106100dd5760003560e01c8063790aed171161007f578063de45aeef11610059578063de45aeef146103f1578063e0a73a9314610482578063e2fdcc17146104ad578063eebb136314610504576100dd565b8063790aed171461027a578063c8160db8146102d1578063d27872d014610361576100dd565b806327e235e3116100bb57806327e235e3146101945780632e49d78b146101f95780633c3ce17d146102375780634e69d56014610241576100dd565b8063117de2fd146100e257806312065fe014610130578063200d2ed21461015b575b600080fd5b61012e600480360360408110156100f857600080fd5b81019080803573ffffffffffffffffffffffffffffffffffffffff1690602001909291908035906020019092919050505061055b565b005b34801561013c57600080fd5b506101456109b7565b6040518082815260200191505060405180910390f35b34801561016757600080fd5b506101706109bf565b6040518082600581111561018057fe5b60ff16815260200191505060405180910390f35b3480156101a057600080fd5b506101e3600480360360208110156101b757600080fd5b81019080803573ffffffffffffffffffffffffffffffffffffffff1690602001909291905050506109d1565b6040518082815260200191505060405180910390f35b34801561020557600080fd5b506102356004803603602081101561021c57600080fd5b81019080803560ff1690602001909291905050506109e9565b005b61023f610a0e565b005b34801561024d57600080fd5b50610256610b7c565b6040518082600581111561026657fe5b60ff16815260200191505060405180910390f35b34801561028657600080fd5b5061028f610b92565b604051808273ffffffffffffffffffffffffffffffffffffffff1673ffffffffffffffffffffffffffffffffffffffff16815260200191505060405180910390f35b3480156102dd57600080fd5b506102e6610bb8565b6040518080602001828103825283818151815260200191508051906020019080838360005b8381101561032657808201518184015260208101905061030b565b50505050905090810190601f1680156103535780820380516001836020036101000a031916815260200191505b509250505060405180910390f35b34801561036d57600080fd5b50610376610c56565b6040518080602001828103825283818151815260200191508051906020019080838360005b838110156103b657808201518184015260208101905061039b565b50505050905090810190601f1680156103e35780820380516001836020036101000a031916815260200191505b509250505060405180910390f35b3480156103fd57600080fd5b506104406004803603602081101561041457600080fd5b81019080803573ffffffffffffffffffffffffffffffffffffffff169060200190929190505050610cf4565b604051808273ffffffffffffffffffffffffffffffffffffffff1673ffffffffffffffffffffffffffffffffffffffff16815260200191505060405180910390f35b34801561048e57600080fd5b50610497610d27565b6040518082815260200191505060405180910390f35b3480156104b957600080fd5b506104c2610d2d565b604051808273ffffffffffffffffffffffffffffffffffffffff1673ffffffffffffffffffffffffffffffffffffffff16815260200191505060405180910390f35b34801561051057600080fd5b50610519610d53565b604051808273ffffffffffffffffffffffffffffffffffffffff1673ffffffffffffffffffffffffffffffffffffffff16815260200191505060405180910390f35b600460009054906101000a900473ffffffffffffffffffffffffffffffffffffffff1673ffffffffffffffffffffffffffffffffffffffff163373ffffffffffffffffffffffffffffffffffffffff1614610601576040517f08c379a000000000000000000000000000000000000000000000000000000000815260040180806020018281038252603b815260200180610ed5603b913960400191505060405180910390fd5b8173ffffffffffffffffffffffffffffffffffffffff16600460009054906101000a900473ffffffffffffffffffffffffffffffffffffffff1673ffffffffffffffffffffffffffffffffffffffff1614156106a8576040517f08c379a0000000000000000000000000000000000000000000000000000000008152600401808060200182810382526035815260200180610e026035913960400191505060405180910390fd5b8173ffffffffffffffffffffffffffffffffffffffff16600260008473ffffffffffffffffffffffffffffffffffffffff1673ffffffffffffffffffffffffffffffffffffffff16815260200190815260200160002060009054906101000a900473ffffffffffffffffffffffffffffffffffffffff1673ffffffffffffffffffffffffffffffffffffffff16148061078e57508173ffffffffffffffffffffffffffffffffffffffff16600060019054906101000a900473ffffffffffffffffffffffffffffffffffffffff1673ffffffffffffffffffffffffffffffffffffffff16145b806107e657508173ffffffffffffffffffffffffffffffffffffffff16600560009054906101000a900473ffffffffffffffffffffffffffffffffffffffff1673ffffffffffffffffffffffffffffffffffffffff16145b61083b576040517f08c379a000000000000000000000000000000000000000000000000000000000815260040180806020018281038252606b815260200180610e37606b913960800191505060405180910390fd5b8173ffffffffffffffffffffffffffffffffffffffff16600060019054906101000a900473ffffffffffffffffffffffffffffffffffffffff1673ffffffffffffffffffffffffffffffffffffffff1614156108b55760046000806101000a81548160ff021916908360058111156108af57fe5b02179055505b8173ffffffffffffffffffffffffffffffffffffffff16600260008473ffffffffffffffffffffffffffffffffffffffff1673ffffffffffffffffffffffffffffffffffffffff16815260200190815260200160002060009054906101000a900473ffffffffffffffffffffffffffffffffffffffff1673ffffffffffffffffffffffffffffffffffffffff16141561096c5760056000806101000a81548160ff0219169083600581111561096657fe5b02179055505b8173ffffffffffffffffffffffffffffffffffffffff166108fc829081150290604051600060405180830381858888f193505050501580156109b2573d6000803e3d6000fd5b505050565b600047905090565b6000809054906101000a900460ff1681565b60036020528060005260406000206000915090505481565b806000806101000a81548160ff02191690836005811115610a0657fe5b021790555050565b60003411610a67576040517f08c379a0000000000000000000000000000000000000000000000000000000008152600401808060200182810382526033815260200180610ea26033913960400191505060405180910390fd5b33600260003373ffffffffffffffffffffffffffffffffffffffff1673ffffffffffffffffffffffffffffffffffffffff16815260200190815260200160002060006101000a81548173ffffffffffffffffffffffffffffffffffffffff021916908373ffffffffffffffffffffffffffffffffffffffff160217905550610b3734600360003373ffffffffffffffffffffffffffffffffffffffff1673ffffffffffffffffffffffffffffffffffffffff16815260200190815260200160002054610d7990919063ffffffff16565b600360003373ffffffffffffffffffffffffffffffffffffffff1673ffffffffffffffffffffffffffffffffffffffff16815260200190815260200160002081905550565b60008060009054906101000a900460ff16905090565b600560009054906101000a900473ffffffffffffffffffffffffffffffffffffffff1681565b60078054600181600116156101000203166002900480601f016020809104026020016040519081016040528092919081815260200182805460018160011615610100020316600290048015610c4e5780601f10610c2357610100808354040283529160200191610c4e565b820191906000526020600020905b815481529060010190602001808311610c3157829003601f168201915b505050505081565b60068054600181600116156101000203166002900480601f016020809104026020016040519081016040528092919081815260200182805460018160011615610100020316600290048015610cec5780601f10610cc157610100808354040283529160200191610cec565b820191906000526020600020905b815481529060010190602001808311610ccf57829003601f168201915b505050505081565b60026020528060005260406000206000915054906101000a900473ffffffffffffffffffffffffffffffffffffffff1681565b60015481565b600460009054906101000a900473ffffffffffffffffffffffffffffffffffffffff1681565b600060019054906101000a900473ffffffffffffffffffffffffffffffffffffffff1681565b600080828401905083811015610df7576040517f08c379a000000000000000000000000000000000000000000000000000000000815260040180806020018281038252601b8152602001807f536166654d6174683a206164646974696f6e206f766572666c6f77000000000081525060200191505060405180910390fd5b809150509291505056fe596f752063616e6e6f74207472616e73666572206d6f6e6579207468617420646f65736e27742062656c6f6e6720746f20796f75215468697320696e737572616e636520636f6e74726163742063616e206f6e6c79207061796f757420746f207265676973746572656420696e7375726572732c206f722074686520696e73757265642c206f722074686520636f6d6d697373696f6e7320616464726573732e596f75206d75737420696e73757265207468697320696e737572616e63652077697468206174206c656173742031207765692e4f6e6c79204772696666696e496e737572616e6365277320657363726f7720736572766963652063616e2063616c6c2074686973206d6574686f64a2646970667358221220b745aa4b2b4bbb819106bd4dcee9b4c280323c515b7472c53557e46a37b9b7e364736f6c63430006000033596f7572207072656d69756d206d757374206265206174206c656173742031207765692e",
  "source": "pragma solidity ^0.6.0;\n\nimport \"./SafeMath.sol\";\nimport \"./ISmartInsurance.sol\";\n\ncontract FlightInsurance is ISmartInsurance {\n    using SafeMath for uint256;\n\n    // Status the current Status of the insurance contract\n    Status public status;\n    \n    // Stores the Etheruem address of the insured, it's payable so that the insured address can receive payouts\n    address payable public insured;\n    uint256 public premium = 0;\n    \n    // As there can be many insurers, we use an array\n    // It's also payable in case it expires\n    // address payable[] public insurers;\n    mapping(address => address payable) public insurers;\n    mapping(address => uint256) public balances;\n    \n    // Our address as escrow 0xfeB87197aBd18dDaBD28B58b205936dfB4569B17\n    address payable public escrow = payable(0xfeB87197aBd18dDaBD28B58b205936dfB4569B17);\n    address payable public commissions = payable(0xc008b0ce010280fa0e0a367df632ceba7d89e7ed7a5e3d2e05d7652b0094501e);\n    \n    string public flightCode;\n    string public flightDate;\n    \n    modifier onlyInsured() {\n        require(msg.sender == insured, \"Only insured can call this method\");\n        _;\n    }\n    \n    modifier onlyEscrow() {\n        require(msg.sender == escrow, \"Only GriffinInsurance's escrow service can call this method\");\n        _;\n    }\n    \n    constructor(string memory _flightCode, string memory _flightDate) payable public {\n        require(msg.value > 0, \"Your premium must be at least 1 wei.\");\n        insured = msg.sender;\n        flightCode = _flightCode;\n        flightDate = _flightDate;\n        premium = premium.add(msg.value);\n        status = Status.AWAITING_FUNDING;\n    }\n    \n    function insure() payable public override {\n        require(msg.value > 0, \"You must insure this insurance with at least 1 wei.\");\n        insurers[msg.sender] = msg.sender;\n        balances[msg.sender] = balances[msg.sender].add(msg.value);\n    }\n\n    function getBalance() public view override returns (uint256) {\n        return address(this).balance;\n    }\n    \n    function getStatus() public view override returns (Status) {\n        return status;\n    }\n    \n    function setStatus(Status _status) public override {\n        status = _status;\n    }\n    \n    // Only we can control who to payout to, but not to ourselves\n    function payout(address payable to, uint256 amount) onlyEscrow payable public override {\n        // The payable to address cannot be the escrow\n        require(escrow != to, \"You cannot transfer money that doesn't belong to you!\");\n        // The payable to address must either be the insured or the insurers\n        require(insurers[to] == to || insured == to || commissions == to , \"This insurance contract can only payout to registered insurers, or the insured, or the commissions address.\");\n        if (insured == to) {\n            status = Status.PAID_OUT;\n        }\n        if (insurers[to] == to) {\n            status = Status.EXPIRED_AND_NO_CLAIMS;\n        }\n        \n        to.transfer(amount);\n    }\n}",
  "sourcePath": "/Users/jiajian/Documents/GitHub/is452/is452-js-backend/blockchain/contracts/FlightInsurance.sol",
  "compiler": {
    "name": "solc",
    "version": "0.6.0+commit.26b70077.Emscripten.clang"
  },
  "schemaVersion": "3.3.0",
  "updatedAt": "2020-11-05T07:06:27.881Z",
  "devdoc": {
    "methods": {}
  },
  "userdoc": {
    "methods": {}
  }
}