{
  "contractName": "FlightInsurance",
  "abi": [
    {
      "inputs": [
        {
          "internalType": "string",
          "name": "_flightCode",
          "type": "string"
        },
        {
          "internalType": "string",
          "name": "_flightDate",
          "type": "string"
        }
      ],
      "stateMutability": "payable",
      "type": "constructor"
    },
    {
      "inputs": [
        {
          "internalType": "address",
          "name": "",
          "type": "address"
        }
      ],
      "name": "balances",
      "outputs": [
        {
          "internalType": "uint256",
          "name": "",
          "type": "uint256"
        }
      ],
      "stateMutability": "view",
      "type": "function"
    },
    {
      "inputs": [],
      "name": "escrow",
      "outputs": [
        {
          "internalType": "address payable",
          "name": "",
          "type": "address"
        }
      ],
      "stateMutability": "view",
      "type": "function"
    },
    {
      "inputs": [],
      "name": "flightCode",
      "outputs": [
        {
          "internalType": "string",
          "name": "",
          "type": "string"
        }
      ],
      "stateMutability": "view",
      "type": "function"
    },
    {
      "inputs": [],
      "name": "flightDate",
      "outputs": [
        {
          "internalType": "string",
          "name": "",
          "type": "string"
        }
      ],
      "stateMutability": "view",
      "type": "function"
    },
    {
      "inputs": [],
      "name": "insured",
      "outputs": [
        {
          "internalType": "address payable",
          "name": "",
          "type": "address"
        }
      ],
      "stateMutability": "view",
      "type": "function"
    },
    {
      "inputs": [
        {
          "internalType": "address",
          "name": "",
          "type": "address"
        }
      ],
      "name": "insurers",
      "outputs": [
        {
          "internalType": "address payable",
          "name": "",
          "type": "address"
        }
      ],
      "stateMutability": "view",
      "type": "function"
    },
    {
      "inputs": [],
      "name": "premium",
      "outputs": [
        {
          "internalType": "uint256",
          "name": "",
          "type": "uint256"
        }
      ],
      "stateMutability": "view",
      "type": "function"
    },
    {
      "inputs": [],
      "name": "status",
      "outputs": [
        {
          "internalType": "enum ISmartInsurance.Status",
          "name": "",
          "type": "uint8"
        }
      ],
      "stateMutability": "view",
      "type": "function"
    },
    {
      "inputs": [],
      "name": "insure",
      "outputs": [],
      "stateMutability": "payable",
      "type": "function"
    },
    {
      "inputs": [],
      "name": "getBalance",
      "outputs": [
        {
          "internalType": "uint256",
          "name": "",
          "type": "uint256"
        }
      ],
      "stateMutability": "view",
      "type": "function"
    },
    {
      "inputs": [],
      "name": "getStatus",
      "outputs": [
        {
          "internalType": "enum ISmartInsurance.Status",
          "name": "",
          "type": "uint8"
        }
      ],
      "stateMutability": "view",
      "type": "function"
    },
    {
      "inputs": [
        {
          "internalType": "enum ISmartInsurance.Status",
          "name": "_status",
          "type": "uint8"
        }
      ],
      "name": "setStatus",
      "outputs": [],
      "stateMutability": "nonpayable",
      "type": "function"
    },
    {
      "inputs": [
        {
          "internalType": "address payable",
          "name": "to",
          "type": "address"
        },
        {
          "internalType": "uint256",
          "name": "amount",
          "type": "uint256"
        }
      ],
      "name": "payout",
      "outputs": [],
      "stateMutability": "payable",
      "type": "function"
    }
  ],
  "bytecode": "0x6080604052600060015573feb87197abd18ddabd28b58b205936dfb4569b17600460006101000a81548173ffffffffffffffffffffffffffffffffffffffff021916908373ffffffffffffffffffffffffffffffffffffffff160217905550604051620012c1380380620012c1833981810160405260408110156200008357600080fd5b8101908080516040519392919084640100000000821115620000a457600080fd5b83820191506020820185811115620000bb57600080fd5b8251866001820283011164010000000082111715620000d957600080fd5b8083526020830192505050908051906020019080838360005b838110156200010f578082015181840152602081019050620000f2565b50505050905090810190601f1680156200013d5780820380516001836020036101000a031916815260200191505b50604052602001805160405193929190846401000000008211156200016157600080fd5b838201915060208201858111156200017857600080fd5b82518660018202830111640100000000821117156200019657600080fd5b8083526020830192505050908051906020019080838360005b83811015620001cc578082015181840152602081019050620001af565b50505050905090810190601f168015620001fa5780820380516001836020036101000a031916815260200191505b50604052505050600034116200025c576040517f08c379a00000000000000000000000000000000000000000000000000000000081526004018080602001828103825260248152602001806200129d6024913960400191505060405180910390fd5b33600060016101000a81548173ffffffffffffffffffffffffffffffffffffffff021916908373ffffffffffffffffffffffffffffffffffffffff1602179055508160059080519060200190620002b5929190620003a6565b508060069080519060200190620002ce929190620003a6565b50620002eb346001546200031d60201b62000c891790919060201c565b60018190555060016000806101000a81548160ff021916908360058111156200031057fe5b0217905550505062000455565b6000808284019050838110156200039c576040517f08c379a000000000000000000000000000000000000000000000000000000000815260040180806020018281038252601b8152602001807f536166654d6174683a206164646974696f6e206f766572666c6f77000000000081525060200191505060405180910390fd5b8091505092915050565b828054600181600116156101000203166002900490600052602060002090601f016020900481019282601f10620003e957805160ff19168380011785556200041a565b828001600101855582156200041a579182015b8281111562000419578251825591602001919060010190620003fc565b5b5090506200042991906200042d565b5090565b6200045291905b808211156200044e57600081600090555060010162000434565b5090565b90565b610e3880620004656000396000f3fe6080604052600436106100c25760003560e01c80634e69d5601161007f578063de45aeef11610059578063de45aeef1461037f578063e0a73a9314610410578063e2fdcc171461043b578063eebb136314610492576100c2565b80634e69d56014610226578063c8160db81461025f578063d27872d0146102ef576100c2565b8063117de2fd146100c757806312065fe014610115578063200d2ed21461014057806327e235e3146101795780632e49d78b146101de5780633c3ce17d1461021c575b600080fd5b610113600480360360408110156100dd57600080fd5b81019080803573ffffffffffffffffffffffffffffffffffffffff169060200190929190803590602001909291905050506104e9565b005b34801561012157600080fd5b5061012a6108ed565b6040518082815260200191505060405180910390f35b34801561014c57600080fd5b506101556108f5565b6040518082600581111561016557fe5b60ff16815260200191505060405180910390f35b34801561018557600080fd5b506101c86004803603602081101561019c57600080fd5b81019080803573ffffffffffffffffffffffffffffffffffffffff169060200190929190505050610907565b6040518082815260200191505060405180910390f35b3480156101ea57600080fd5b5061021a6004803603602081101561020157600080fd5b81019080803560ff16906020019092919050505061091f565b005b610224610944565b005b34801561023257600080fd5b5061023b610ab2565b6040518082600581111561024b57fe5b60ff16815260200191505060405180910390f35b34801561026b57600080fd5b50610274610ac8565b6040518080602001828103825283818151815260200191508051906020019080838360005b838110156102b4578082015181840152602081019050610299565b50505050905090810190601f1680156102e15780820380516001836020036101000a031916815260200191505b509250505060405180910390f35b3480156102fb57600080fd5b50610304610b66565b6040518080602001828103825283818151815260200191508051906020019080838360005b83811015610344578082015181840152602081019050610329565b50505050905090810190601f1680156103715780820380516001836020036101000a031916815260200191505b509250505060405180910390f35b34801561038b57600080fd5b506103ce600480360360208110156103a257600080fd5b81019080803573ffffffffffffffffffffffffffffffffffffffff169060200190929190505050610c04565b604051808273ffffffffffffffffffffffffffffffffffffffff1673ffffffffffffffffffffffffffffffffffffffff16815260200191505060405180910390f35b34801561041c57600080fd5b50610425610c37565b6040518082815260200191505060405180910390f35b34801561044757600080fd5b50610450610c3d565b604051808273ffffffffffffffffffffffffffffffffffffffff1673ffffffffffffffffffffffffffffffffffffffff16815260200191505060405180910390f35b34801561049e57600080fd5b506104a7610c63565b604051808273ffffffffffffffffffffffffffffffffffffffff1673ffffffffffffffffffffffffffffffffffffffff16815260200191505060405180910390f35b600460009054906101000a900473ffffffffffffffffffffffffffffffffffffffff1673ffffffffffffffffffffffffffffffffffffffff163373ffffffffffffffffffffffffffffffffffffffff161461058f576040517f08c379a000000000000000000000000000000000000000000000000000000000815260040180806020018281038252603b815260200180610d7a603b913960400191505060405180910390fd5b8173ffffffffffffffffffffffffffffffffffffffff16600460009054906101000a900473ffffffffffffffffffffffffffffffffffffffff1673ffffffffffffffffffffffffffffffffffffffff161415610636576040517f08c379a0000000000000000000000000000000000000000000000000000000008152600401808060200182810382526035815260200180610d126035913960400191505060405180910390fd5b8173ffffffffffffffffffffffffffffffffffffffff16600260008473ffffffffffffffffffffffffffffffffffffffff1673ffffffffffffffffffffffffffffffffffffffff16815260200190815260200160002060009054906101000a900473ffffffffffffffffffffffffffffffffffffffff1673ffffffffffffffffffffffffffffffffffffffff16148061071c57508173ffffffffffffffffffffffffffffffffffffffff16600060019054906101000a900473ffffffffffffffffffffffffffffffffffffffff1673ffffffffffffffffffffffffffffffffffffffff16145b610771576040517f08c379a000000000000000000000000000000000000000000000000000000000815260040180806020018281038252604e815260200180610db5604e913960600191505060405180910390fd5b8173ffffffffffffffffffffffffffffffffffffffff16600060019054906101000a900473ffffffffffffffffffffffffffffffffffffffff1673ffffffffffffffffffffffffffffffffffffffff1614156107eb5760046000806101000a81548160ff021916908360058111156107e557fe5b02179055505b8173ffffffffffffffffffffffffffffffffffffffff16600260008473ffffffffffffffffffffffffffffffffffffffff1673ffffffffffffffffffffffffffffffffffffffff16815260200190815260200160002060009054906101000a900473ffffffffffffffffffffffffffffffffffffffff1673ffffffffffffffffffffffffffffffffffffffff1614156108a25760056000806101000a81548160ff0219169083600581111561089c57fe5b02179055505b8173ffffffffffffffffffffffffffffffffffffffff166108fc829081150290604051600060405180830381858888f193505050501580156108e8573d6000803e3d6000fd5b505050565b600047905090565b6000809054906101000a900460ff1681565b60036020528060005260406000206000915090505481565b806000806101000a81548160ff0219169083600581111561093c57fe5b021790555050565b6000341161099d576040517f08c379a0000000000000000000000000000000000000000000000000000000008152600401808060200182810382526033815260200180610d476033913960400191505060405180910390fd5b33600260003373ffffffffffffffffffffffffffffffffffffffff1673ffffffffffffffffffffffffffffffffffffffff16815260200190815260200160002060006101000a81548173ffffffffffffffffffffffffffffffffffffffff021916908373ffffffffffffffffffffffffffffffffffffffff160217905550610a6d34600360003373ffffffffffffffffffffffffffffffffffffffff1673ffffffffffffffffffffffffffffffffffffffff16815260200190815260200160002054610c8990919063ffffffff16565b600360003373ffffffffffffffffffffffffffffffffffffffff1673ffffffffffffffffffffffffffffffffffffffff16815260200190815260200160002081905550565b60008060009054906101000a900460ff16905090565b60068054600181600116156101000203166002900480601f016020809104026020016040519081016040528092919081815260200182805460018160011615610100020316600290048015610b5e5780601f10610b3357610100808354040283529160200191610b5e565b820191906000526020600020905b815481529060010190602001808311610b4157829003601f168201915b505050505081565b60058054600181600116156101000203166002900480601f016020809104026020016040519081016040528092919081815260200182805460018160011615610100020316600290048015610bfc5780601f10610bd157610100808354040283529160200191610bfc565b820191906000526020600020905b815481529060010190602001808311610bdf57829003601f168201915b505050505081565b60026020528060005260406000206000915054906101000a900473ffffffffffffffffffffffffffffffffffffffff1681565b60015481565b600460009054906101000a900473ffffffffffffffffffffffffffffffffffffffff1681565b600060019054906101000a900473ffffffffffffffffffffffffffffffffffffffff1681565b600080828401905083811015610d07576040517f08c379a000000000000000000000000000000000000000000000000000000000815260040180806020018281038252601b8152602001807f536166654d6174683a206164646974696f6e206f766572666c6f77000000000081525060200191505060405180910390fd5b809150509291505056fe596f752063616e6e6f74207472616e73666572206d6f6e6579207468617420646f65736e27742062656c6f6e6720746f20796f7521596f75206d75737420696e73757265207468697320696e737572616e63652077697468206174206c656173742031207765692e4f6e6c79204772696666696e496e737572616e6365277320657363726f7720736572766963652063616e2063616c6c2074686973206d6574686f645468697320696e737572616e636520636f6e74726163742063616e206f6e6c79207061796f757420746f207265676973746572656420696e737572657273206f722074686520696e73757265642ea26469706673582212202418349f21c1a6715acbdb81a24304cbd1f1ebaae67c029d5656f259ec11fbd664736f6c63430006000033596f7572207072656d69756d206d757374206265206174206c656173742031207765692e",
  "source": "pragma solidity ^0.6.0;\n\nimport \"./SafeMath.sol\";\nimport \"./ISmartInsurance.sol\";\n\ncontract FlightInsurance is ISmartInsurance {\n    using SafeMath for uint256;\n\n    // Status the current Status of the insurance contract\n    Status public status;\n    \n    // Stores the Etheruem address of the insured, it's payable so that the insured address can receive payouts\n    address payable public insured;\n    uint256 public premium = 0;\n    \n    // As there can be many insurers, we use an array\n    // It's also payable in case it expires\n    // address payable[] public insurers;\n    mapping(address => address payable) public insurers;\n    mapping(address => uint256) public balances;\n    \n    // Our address as escrow 0xfeB87197aBd18dDaBD28B58b205936dfB4569B17\n    address payable public escrow = payable(0xfeB87197aBd18dDaBD28B58b205936dfB4569B17);\n    \n    string public flightCode;\n    string public flightDate;\n    \n    modifier onlyInsured() {\n        require(msg.sender == insured, \"Only insured can call this method\");\n        _;\n    }\n    \n    modifier onlyEscrow() {\n        require(msg.sender == escrow, \"Only GriffinInsurance's escrow service can call this method\");\n        _;\n    }\n    \n    constructor(string memory _flightCode, string memory _flightDate) payable public {\n        require(msg.value > 0, \"Your premium must be at least 1 wei.\");\n        insured = msg.sender;\n        flightCode = _flightCode;\n        flightDate = _flightDate;\n        premium = premium.add(msg.value);\n        status = Status.AWAITING_FUNDING;\n    }\n    \n    function insure() payable public override {\n        require(msg.value > 0, \"You must insure this insurance with at least 1 wei.\");\n        insurers[msg.sender] = msg.sender;\n        balances[msg.sender] = balances[msg.sender].add(msg.value);\n    }\n\n    function getBalance() public view override returns (uint256) {\n        return address(this).balance;\n    }\n    \n    function getStatus() public view override returns (Status) {\n        return status;\n    }\n    \n    function setStatus(Status _status) public override {\n        status = _status;\n    }\n    \n    // Only we can control who to payout to, but not to ourselves\n    function payout(address payable to, uint256 amount) onlyEscrow payable public override {\n        // The payable to address cannot be the escrow\n        require(escrow != to, \"You cannot transfer money that doesn't belong to you!\");\n        // The payable to address must either be the insured or the insurers\n        require(insurers[to] == to || insured == to, \"This insurance contract can only payout to registered insurers or the insured.\");\n        \n        if (insured == to) {\n            status = Status.PAID_OUT;\n        }\n        if (insurers[to] == to) {\n            status = Status.EXPIRED_AND_NO_CLAIMS;\n        }\n        \n        to.transfer(amount);\n    }\n}",
  "sourcePath": "/Users/jiajian/Documents/GitHub/is452/is452-js-backend/blockchain/contracts/FlightInsurance.sol",
  "compiler": {
    "name": "solc",
    "version": "0.6.0+commit.26b70077.Emscripten.clang"
  },
  "schemaVersion": "3.3.0",
  "updatedAt": "2020-11-05T03:21:09.287Z",
  "devdoc": {
    "methods": {}
  },
  "userdoc": {
    "methods": {}
  }
}