{
  "contractName": "SmartInsurance",
  "abi": [
    {
      "inputs": [
        {
          "internalType": "address payable",
          "name": "_insured",
          "type": "address"
        },
        {
          "internalType": "string",
          "name": "_flightCode",
          "type": "string"
        },
        {
          "internalType": "string",
          "name": "_flightDate",
          "type": "string"
        }
      ],
      "stateMutability": "nonpayable",
      "type": "constructor"
    },
    {
      "inputs": [
        {
          "internalType": "address",
          "name": "",
          "type": "address"
        }
      ],
      "name": "balances",
      "outputs": [
        {
          "internalType": "uint256",
          "name": "",
          "type": "uint256"
        }
      ],
      "stateMutability": "view",
      "type": "function"
    },
    {
      "inputs": [],
      "name": "flightCode",
      "outputs": [
        {
          "internalType": "string",
          "name": "",
          "type": "string"
        }
      ],
      "stateMutability": "view",
      "type": "function"
    },
    {
      "inputs": [],
      "name": "flightDate",
      "outputs": [
        {
          "internalType": "string",
          "name": "",
          "type": "string"
        }
      ],
      "stateMutability": "view",
      "type": "function"
    },
    {
      "inputs": [],
      "name": "insured",
      "outputs": [
        {
          "internalType": "address payable",
          "name": "",
          "type": "address"
        }
      ],
      "stateMutability": "view",
      "type": "function"
    },
    {
      "inputs": [
        {
          "internalType": "uint256",
          "name": "",
          "type": "uint256"
        }
      ],
      "name": "insurers",
      "outputs": [
        {
          "internalType": "address payable",
          "name": "",
          "type": "address"
        }
      ],
      "stateMutability": "view",
      "type": "function"
    },
    {
      "inputs": [],
      "name": "owner",
      "outputs": [
        {
          "internalType": "address payable",
          "name": "",
          "type": "address"
        }
      ],
      "stateMutability": "view",
      "type": "function"
    },
    {
      "inputs": [],
      "name": "premium",
      "outputs": [
        {
          "internalType": "uint256",
          "name": "",
          "type": "uint256"
        }
      ],
      "stateMutability": "view",
      "type": "function"
    },
    {
      "inputs": [],
      "name": "status",
      "outputs": [
        {
          "internalType": "enum SmartInsurance.Status",
          "name": "",
          "type": "uint8"
        }
      ],
      "stateMutability": "view",
      "type": "function"
    },
    {
      "inputs": [],
      "name": "insure",
      "outputs": [],
      "stateMutability": "payable",
      "type": "function"
    },
    {
      "inputs": [],
      "name": "payPremium",
      "outputs": [],
      "stateMutability": "payable",
      "type": "function"
    },
    {
      "inputs": [],
      "name": "getBalance",
      "outputs": [
        {
          "internalType": "uint256",
          "name": "",
          "type": "uint256"
        }
      ],
      "stateMutability": "view",
      "type": "function"
    },
    {
      "inputs": [],
      "name": "getStatus",
      "outputs": [
        {
          "internalType": "enum SmartInsurance.Status",
          "name": "",
          "type": "uint8"
        }
      ],
      "stateMutability": "view",
      "type": "function"
    },
    {
      "inputs": [
        {
          "internalType": "uint8",
          "name": "_status",
          "type": "uint8"
        }
      ],
      "name": "setState",
      "outputs": [],
      "stateMutability": "nonpayable",
      "type": "function"
    },
    {
      "inputs": [
        {
          "internalType": "uint8",
          "name": "_hours",
          "type": "uint8"
        }
      ],
      "name": "payout",
      "outputs": [],
      "stateMutability": "nonpayable",
      "type": "function"
    }
  ],
  "bytecode": "0x608060405260006001553480156200001657600080fd5b5060405162000f7438038062000f74833981810160405260608110156200003c57600080fd5b8101908080519060200190929190805160405193929190846401000000008211156200006757600080fd5b838201915060208201858111156200007e57600080fd5b82518660018202830111640100000000821117156200009c57600080fd5b8083526020830192505050908051906020019080838360005b83811015620000d2578082015181840152602081019050620000b5565b50505050905090810190601f168015620001005780820380516001836020036101000a031916815260200191505b50604052602001805160405193929190846401000000008211156200012457600080fd5b838201915060208201858111156200013b57600080fd5b82518660018202830111640100000000821117156200015957600080fd5b8083526020830192505050908051906020019080838360005b838110156200018f57808201518184015260208101905062000172565b50505050905090810190601f168015620001bd5780820380516001836020036101000a031916815260200191505b5060405250505033600460006101000a81548173ffffffffffffffffffffffffffffffffffffffff021916908373ffffffffffffffffffffffffffffffffffffffff16021790555082600060016101000a81548173ffffffffffffffffffffffffffffffffffffffff021916908373ffffffffffffffffffffffffffffffffffffffff16021790555081600590805190602001906200025e929190620002a5565b50806006908051906020019062000277929190620002a5565b5060008060006101000a81548160ff021916908360058111156200029757fe5b021790555050505062000354565b828054600181600116156101000203166002900490600052602060002090601f016020900481019282601f10620002e857805160ff191683800117855562000319565b8280016001018555821562000319579182015b8281111562000318578251825591602001919060010190620002fb565b5b5090506200032891906200032c565b5090565b6200035191905b808211156200034d57600081600090555060010162000333565b5090565b90565b610c1080620003646000396000f3fe6080604052600436106100dd5760003560e01c806356de96db1161007f578063d27872d011610059578063d27872d01461035b578063e0a73a93146103eb578063e5ee64c314610416578063eebb136314610491576100dd565b806356de96db146102365780638da5cb5b14610274578063c8160db8146102cb576100dd565b806327e235e3116100bb57806327e235e31461018457806329c08ba2146101e95780633c3ce17d146101f35780634e69d560146101fd576100dd565b806312065fe0146100e2578063153f2b4b1461010d578063200d2ed21461014b575b600080fd5b3480156100ee57600080fd5b506100f76104e8565b6040518082815260200191505060405180910390f35b34801561011957600080fd5b506101496004803603602081101561013057600080fd5b81019080803560ff1690602001909291905050506104f0565b005b34801561015757600080fd5b50610160610613565b6040518082600581111561017057fe5b60ff16815260200191505060405180910390f35b34801561019057600080fd5b506101d3600480360360208110156101a757600080fd5b81019080803573ffffffffffffffffffffffffffffffffffffffff169060200190929190505050610625565b6040518082815260200191505060405180910390f35b6101f161063d565b005b6101fb61077c565b005b34801561020957600080fd5b506102126108cf565b6040518082600581111561022257fe5b60ff16815260200191505060405180910390f35b34801561024257600080fd5b506102726004803603602081101561025957600080fd5b81019080803560ff1690602001909291905050506108e5565b005b34801561028057600080fd5b506102896108e8565b604051808273ffffffffffffffffffffffffffffffffffffffff1673ffffffffffffffffffffffffffffffffffffffff16815260200191505060405180910390f35b3480156102d757600080fd5b506102e061090e565b6040518080602001828103825283818151815260200191508051906020019080838360005b83811015610320578082015181840152602081019050610305565b50505050905090810190601f16801561034d5780820380516001836020036101000a031916815260200191505b509250505060405180910390f35b34801561036757600080fd5b506103706109ac565b6040518080602001828103825283818151815260200191508051906020019080838360005b838110156103b0578082015181840152602081019050610395565b50505050905090810190601f1680156103dd5780820380516001836020036101000a031916815260200191505b509250505060405180910390f35b3480156103f757600080fd5b50610400610a4a565b6040518082815260200191505060405180910390f35b34801561042257600080fd5b5061044f6004803603602081101561043957600080fd5b8101908080359060200190929190505050610a50565b604051808273ffffffffffffffffffffffffffffffffffffffff1673ffffffffffffffffffffffffffffffffffffffff16815260200191505060405180910390f35b34801561049d57600080fd5b506104a6610a8c565b604051808273ffffffffffffffffffffffffffffffffffffffff1673ffffffffffffffffffffffffffffffffffffffff16815260200191505060405180910390f35b600047905090565b600460009054906101000a900473ffffffffffffffffffffffffffffffffffffffff1673ffffffffffffffffffffffffffffffffffffffff163373ffffffffffffffffffffffffffffffffffffffff1614610596576040517f08c379a0000000000000000000000000000000000000000000000000000000008152600401808060200182810382526028815260200180610bb36028913960400191505060405180910390fd5b60038160ff161061060f57600060019054906101000a900473ffffffffffffffffffffffffffffffffffffffff1673ffffffffffffffffffffffffffffffffffffffff166108fc479081150290604051600060405180830381858888f19350505050158015610609573d6000803e3d6000fd5b50610610565b5b50565b6000809054906101000a900460ff1681565b60036020528060005260406000206000915090505481565b600060019054906101000a900473ffffffffffffffffffffffffffffffffffffffff1673ffffffffffffffffffffffffffffffffffffffff163373ffffffffffffffffffffffffffffffffffffffff16146106e3576040517f08c379a0000000000000000000000000000000000000000000000000000000008152600401808060200182810382526021815260200180610b5f6021913960400191505060405180910390fd5b6000341161073c576040517f08c379a0000000000000000000000000000000000000000000000000000000008152600401808060200182810382526024815260200180610b3b6024913960400191505060405180910390fd5b61075134600154610ab290919063ffffffff16565b60018190555060016000806101000a81548160ff0219169083600581111561077557fe5b0217905550565b600034116107d5576040517f08c379a0000000000000000000000000000000000000000000000000000000008152600401808060200182810382526033815260200180610b806033913960400191505060405180910390fd5b6002339080600181540180825580915050600190039060005260206000200160009091909190916101000a81548173ffffffffffffffffffffffffffffffffffffffff021916908373ffffffffffffffffffffffffffffffffffffffff16021790555061088a34600360003373ffffffffffffffffffffffffffffffffffffffff1673ffffffffffffffffffffffffffffffffffffffff16815260200190815260200160002054610ab290919063ffffffff16565b600360003373ffffffffffffffffffffffffffffffffffffffff1673ffffffffffffffffffffffffffffffffffffffff16815260200190815260200160002081905550565b60008060009054906101000a900460ff16905090565b50565b600460009054906101000a900473ffffffffffffffffffffffffffffffffffffffff1681565b60068054600181600116156101000203166002900480601f0160208091040260200160405190810160405280929190818152602001828054600181600116156101000203166002900480156109a45780601f10610979576101008083540402835291602001916109a4565b820191906000526020600020905b81548152906001019060200180831161098757829003601f168201915b505050505081565b60058054600181600116156101000203166002900480601f016020809104026020016040519081016040528092919081815260200182805460018160011615610100020316600290048015610a425780601f10610a1757610100808354040283529160200191610a42565b820191906000526020600020905b815481529060010190602001808311610a2557829003601f168201915b505050505081565b60015481565b60028181548110610a5d57fe5b906000526020600020016000915054906101000a900473ffffffffffffffffffffffffffffffffffffffff1681565b600060019054906101000a900473ffffffffffffffffffffffffffffffffffffffff1681565b600080828401905083811015610b30576040517f08c379a000000000000000000000000000000000000000000000000000000000815260040180806020018281038252601b8152602001807f536166654d6174683a206164646974696f6e206f766572666c6f77000000000081525060200191505060405180910390fd5b809150509291505056fe596f7572207072656d69756d206d757374206265206174206c656173742031207765692e4f6e6c7920696e73757265642063616e2063616c6c2074686973206d6574686f64596f75206d75737420696e73757265207468697320696e737572616e63652077697468206174206c656173742031207765692e4f6e6c7920636f6e7472616374206f776e65722063616e2063616c6c2074686973206d6574686f64a2646970667358221220a21fcf2583e7bca214400f69a96f42cce4d6aaa1e30b70647c93ce068ad9c37864736f6c63430006000033",
  "source": "pragma solidity ^0.6.0;\n\nimport \"./SafeMath.sol\";\n\ncontract SmartInsurance {\n    using SafeMath for uint256;\n\n    enum Status { AWAITING_PREMIUM, AWAITING_FUNDING, FUNDED, IN_FORCE, PAID_OUT, EXPIRED }\n    \n    // Status the current Status of the insurance contract\n    Status public status;\n    \n    // Stores the Etheruem address of the insured, it's payable so that the insured address can receive payouts\n    address payable public insured;\n    uint256 public premium = 0;\n    \n    // As there can be many insurers, we use an array\n    // It's also payable in case it expires\n    address payable[] public insurers;\n    mapping(address => uint256) public balances;\n    \n    // Our address, not sure if we need this\n    address payable public owner;\n    \n    string public flightCode;\n    string public flightDate;\n    \n    modifier onlyInsured() {\n        require(msg.sender == insured, \"Only insured can call this method\");\n        _;\n    }\n    \n    modifier onlyOwner() {\n        require(msg.sender == owner, \"Only contract owner can call this method\");\n        _;\n    }\n    \n    constructor(address payable _insured, string memory _flightCode, string memory _flightDate) public {\n        owner = msg.sender;\n        insured = _insured;\n        flightCode = _flightCode;\n        flightDate = _flightDate;\n        status = Status.AWAITING_PREMIUM;\n    }\n    \n    function insure() payable public {\n        require(msg.value > 0, \"You must insure this insurance with at least 1 wei.\");\n        insurers.push(msg.sender);\n        balances[msg.sender] = balances[msg.sender].add(msg.value);\n    }\n\n    function payPremium() payable onlyInsured public {\n        require(msg.value > 0, \"Your premium must be at least 1 wei.\");\n        premium = premium.add(msg.value);\n        status = Status.AWAITING_FUNDING;\n    }\n    \n    \n\n    function getBalance() public view returns(uint256) {\n        return address(this).balance;\n    }\n    \n    function getStatus() public view returns(Status) {\n        return status;\n    }\n    \n    function setState(uint8 _status) public {\n        \n    }\n    \n    // Only we can control this function\n    function payout(uint8 _hours) onlyOwner public {\n        if (_hours >= 3) {\n            insured.transfer(address(this).balance);\n        } else {\n            // TODO\n        }\n    }\n    \n    // function percentOfPool(address _insurer) public view returns(uint256) {\n    //     // We exclude premium from the calculation\n    //     uint256 balance = address(this).balance;\n    //     uint256 insurersPool = balance.sub(premium);\n    //     uint256 insurerShare = balances[_insurer];\n    //     return insurerShare / insurersPool;\n    // }\n}",
  "sourcePath": "/Users/jiajian/Documents/GitHub/is452-js-backend/blockchain/contracts/SmartInsurance.sol",
  "compiler": {
    "name": "solc",
    "version": "0.6.0+commit.26b70077.Emscripten.clang"
  },
  "schemaVersion": "3.3.0",
  "updatedAt": "2020-10-29T12:43:29.185Z",
  "devdoc": {
    "methods": {}
  },
  "userdoc": {
    "methods": {}
  }
}